{
    "contractName": "DID_L2",
    "abi": [
        {
            "inputs": [],
            "stateMutability": "nonpayable",
            "type": "constructor"
        },
        {
            "anonymous": false,
            "inputs": [
                {
                    "indexed": true,
                    "internalType": "address",
                    "name": "previousOwner",
                    "type": "address"
                },
                {
                    "indexed": true,
                    "internalType": "address",
                    "name": "newOwner",
                    "type": "address"
                }
            ],
            "name": "OwnershipTransferred",
            "type": "event"
        },
        {
            "inputs": [],
            "name": "owner",
            "outputs": [
                {
                    "internalType": "address",
                    "name": "",
                    "type": "address"
                }
            ],
            "stateMutability": "view",
            "type": "function",
            "constant": true
        },
        {
            "inputs": [],
            "name": "renounceOwnership",
            "outputs": [],
            "stateMutability": "nonpayable",
            "type": "function"
        },
        {
            "inputs": [
                {
                    "internalType": "address",
                    "name": "newOwner",
                    "type": "address"
                }
            ],
            "name": "transferOwnership",
            "outputs": [],
            "stateMutability": "nonpayable",
            "type": "function"
        },
        {
            "inputs": [
                {
                    "internalType": "string",
                    "name": "_identifier",
                    "type": "string"
                },
                {
                    "components": [
                        {
                            "internalType": "string",
                            "name": "userCode",
                            "type": "string"
                        },
                        {
                            "internalType": "string",
                            "name": "name",
                            "type": "string"
                        },
                        {
                            "internalType": "string",
                            "name": "birth",
                            "type": "string"
                        },
                        {
                            "internalType": "string",
                            "name": "gender",
                            "type": "string"
                        },
                        {
                            "internalType": "string",
                            "name": "email",
                            "type": "string"
                        }
                    ],
                    "internalType": "struct IDID_L2.UserInfo",
                    "name": "_userData",
                    "type": "tuple"
                }
            ],
            "name": "registerUser",
            "outputs": [],
            "stateMutability": "nonpayable",
            "type": "function"
        },
        {
            "inputs": [
                {
                    "internalType": "string",
                    "name": "_identifier",
                    "type": "string"
                }
            ],
            "name": "withdrawUser",
            "outputs": [],
            "stateMutability": "nonpayable",
            "type": "function"
        },
        {
            "inputs": [
                {
                    "internalType": "string",
                    "name": "_identifier",
                    "type": "string"
                }
            ],
            "name": "isRegistered",
            "outputs": [
                {
                    "internalType": "bool",
                    "name": "",
                    "type": "bool"
                }
            ],
            "stateMutability": "view",
            "type": "function",
            "constant": true
        },
        {
            "inputs": [
                {
                    "internalType": "string",
                    "name": "_identifier",
                    "type": "string"
                }
            ],
            "name": "getUserInfo",
            "outputs": [
                {
                    "components": [
                        {
                            "internalType": "string",
                            "name": "userCode",
                            "type": "string"
                        },
                        {
                            "internalType": "string",
                            "name": "name",
                            "type": "string"
                        },
                        {
                            "internalType": "string",
                            "name": "birth",
                            "type": "string"
                        },
                        {
                            "internalType": "string",
                            "name": "gender",
                            "type": "string"
                        },
                        {
                            "internalType": "string",
                            "name": "email",
                            "type": "string"
                        }
                    ],
                    "internalType": "struct IDID_L2.UserInfo",
                    "name": "",
                    "type": "tuple"
                }
            ],
            "stateMutability": "view",
            "type": "function",
            "constant": true
        },
        {
            "inputs": [
                {
                    "internalType": "address",
                    "name": "_CA",
                    "type": "address"
                }
            ],
            "name": "setL1_CA",
            "outputs": [],
            "stateMutability": "nonpayable",
            "type": "function"
        },
        {
            "inputs": [],
            "name": "sendToL1",
            "outputs": [],
            "stateMutability": "nonpayable",
            "type": "function"
        }
    ],
    "bytecode": "0x608060405234801561001057600080fd5b50600061002161011960201b60201c565b9050806000806101000a81548173ffffffffffffffffffffffffffffffffffffffff021916908373ffffffffffffffffffffffffffffffffffffffff1602179055508073ffffffffffffffffffffffffffffffffffffffff16600073ffffffffffffffffffffffffffffffffffffffff167f8be0079c531659141344cd1fd0a4f28419497f9722a3daafe3b4186f6b6457e060405160405180910390a350734200000000000000000000000000000000000007600560006101000a81548173ffffffffffffffffffffffffffffffffffffffff021916908373ffffffffffffffffffffffffffffffffffffffff160217905550610121565b600033905090565b611d41806101306000396000f3fe608060405234801561001057600080fd5b50600436106100935760003560e01c80638da5cb5b116100665780638da5cb5b1461010a578063c795f25a14610128578063c822d7f014610132578063ed43ddfb14610162578063f2fde38b1461017e57610093565b806320b4d14b14610098578063611e6817146100b4578063715018a6146100d05780637c9b7fdd146100da575b600080fd5b6100b260048036038101906100ad91906111b5565b61019a565b005b6100ce60048036038101906100c99190611320565b6103e8565b005b6100d861056c565b005b6100f460048036038101906100ef91906111b5565b6106a6565b60405161010191906114b2565b60405180910390f35b610112610a69565b60405161011f9190611515565b60405180910390f35b610130610a92565b005b61014c600480360381019061014791906111b5565b610d2a565b604051610159919061154b565b60405180910390f35b61017c60048036038101906101779190611592565b610d5f565b005b61019860048036038101906101939190611592565b610e1f565b005b6004816040516101aa91906115fb565b908152602001604051809103902060009054906101000a900460ff166101cf57600080fd5b60006001826040516101e191906115fb565b908152602001604051809103902060000180546101fd90611641565b80601f016020809104026020016040519081016040528092919081815260200182805461022990611641565b80156102765780601f1061024b57610100808354040283529160200191610276565b820191906000526020600020905b81548152906001019060200180831161025957829003601f168201915b5050505050905060005b60038054905081101561033b578160405160200161029e91906115fb565b60405160208183030381529060405280519060200120600382815481106102c8576102c7611672565b5b906000526020600020016040516020016102e29190611739565b6040516020818303038152906040528051906020012003610328576003818154811061031157610310611672565b5b9060005260206000200160006103279190610fcf565b5b808061033390611789565b915050610280565b5060018260405161034c91906115fb565b90815260200160405180910390206000808201600061036b9190610fcf565b60018201600061037b9190610fcf565b60028201600061038b9190610fcf565b60038201600061039b9190610fcf565b6004820160006103ab9190610fcf565b505060006004836040516103bf91906115fb565b908152602001604051809103902060006101000a81548160ff0219169083151502179055505050565b6004826040516103f891906115fb565b908152602001604051809103902060009054906101000a900460ff161561041e57600080fd5b61042661100f565b81600001518160000181905250816020015181602001819052508160400151816040018190525081606001518160600181905250816080015181608001819052508060018460405161047891906115fb565b9081526020016040518091039020600082015181600001908161049b9190611968565b5060208201518160010190816104b19190611968565b5060408201518160020190816104c79190611968565b5060608201518160030190816104dd9190611968565b5060808201518160040190816104f39190611968565b50905050600160048460405161050991906115fb565b908152602001604051809103902060006101000a81548160ff021916908315150217905550600382600001519080600181540180825580915050600190039060005260206000200160009091909190915090816105669190611968565b50505050565b610574610fc7565b73ffffffffffffffffffffffffffffffffffffffff16610592610a69565b73ffffffffffffffffffffffffffffffffffffffff16146105e8576040517f08c379a00000000000000000000000000000000000000000000000000000000081526004016105df90611a97565b60405180910390fd5b600073ffffffffffffffffffffffffffffffffffffffff1660008054906101000a900473ffffffffffffffffffffffffffffffffffffffff1673ffffffffffffffffffffffffffffffffffffffff167f8be0079c531659141344cd1fd0a4f28419497f9722a3daafe3b4186f6b6457e060405160405180910390a360008060006101000a81548173ffffffffffffffffffffffffffffffffffffffff021916908373ffffffffffffffffffffffffffffffffffffffff160217905550565b6106ae61100f565b6106b6610fc7565b73ffffffffffffffffffffffffffffffffffffffff166106d4610a69565b73ffffffffffffffffffffffffffffffffffffffff161461072a576040517f08c379a000000000000000000000000000000000000000000000000000000000815260040161072190611a97565b60405180910390fd5b60048260405161073a91906115fb565b908152602001604051809103902060009054906101000a900460ff1661075f57600080fd5b60018260405161076f91906115fb565b90815260200160405180910390206040518060a001604052908160008201805461079890611641565b80601f01602080910402602001604051908101604052809291908181526020018280546107c490611641565b80156108115780601f106107e657610100808354040283529160200191610811565b820191906000526020600020905b8154815290600101906020018083116107f457829003601f168201915b5050505050815260200160018201805461082a90611641565b80601f016020809104026020016040519081016040528092919081815260200182805461085690611641565b80156108a35780601f10610878576101008083540402835291602001916108a3565b820191906000526020600020905b81548152906001019060200180831161088657829003601f168201915b505050505081526020016002820180546108bc90611641565b80601f01602080910402602001604051908101604052809291908181526020018280546108e890611641565b80156109355780601f1061090a57610100808354040283529160200191610935565b820191906000526020600020905b81548152906001019060200180831161091857829003601f168201915b5050505050815260200160038201805461094e90611641565b80601f016020809104026020016040519081016040528092919081815260200182805461097a90611641565b80156109c75780601f1061099c576101008083540402835291602001916109c7565b820191906000526020600020905b8154815290600101906020018083116109aa57829003601f168201915b505050505081526020016004820180546109e090611641565b80601f0160208091040260200160405190810160405280929190818152602001828054610a0c90611641565b8015610a595780601f10610a2e57610100808354040283529160200191610a59565b820191906000526020600020905b815481529060010190602001808311610a3c57829003601f168201915b5050505050815250509050919050565b60008060009054906101000a900473ffffffffffffffffffffffffffffffffffffffff16905090565b610a9a610fc7565b73ffffffffffffffffffffffffffffffffffffffff16610ab8610a69565b73ffffffffffffffffffffffffffffffffffffffff1614610b0e576040517f08c379a0000000000000000000000000000000000000000000000000000000008152600401610b0590611a97565b60405180910390fd5b60006003805480602002602001604051908101604052809291908181526020016000905b82821015610bde578382906000526020600020018054610b5190611641565b80601f0160208091040260200160405190810160405280929190818152602001828054610b7d90611641565b8015610bca5780601f10610b9f57610100808354040283529160200191610bca565b820191906000526020600020905b815481529060010190602001808311610bad57829003601f168201915b505050505081526020019060010190610b32565b505050509050600560009054906101000a900473ffffffffffffffffffffffffffffffffffffffff1673ffffffffffffffffffffffffffffffffffffffff16633dbb202b600260009054906101000a900473ffffffffffffffffffffffffffffffffffffffff1683604051602401610c569190611b79565b6040516020818303038152906040527f0b2799b9000000000000000000000000000000000000000000000000000000007bffffffffffffffffffffffffffffffffffffffffffffffffffffffff19166020820180517bffffffffffffffffffffffffffffffffffffffffffffffffffffffff8381831617835250505050620f42406040518463ffffffff1660e01b8152600401610cf593929190611c3b565b600060405180830381600087803b158015610d0f57600080fd5b505af1158015610d23573d6000803e3d6000fd5b5050505050565b6000600482604051610d3c91906115fb565b908152602001604051809103902060009054906101000a900460ff169050919050565b610d67610fc7565b73ffffffffffffffffffffffffffffffffffffffff16610d85610a69565b73ffffffffffffffffffffffffffffffffffffffff1614610ddb576040517f08c379a0000000000000000000000000000000000000000000000000000000008152600401610dd290611a97565b60405180910390fd5b80600260006101000a81548173ffffffffffffffffffffffffffffffffffffffff021916908373ffffffffffffffffffffffffffffffffffffffff16021790555050565b610e27610fc7565b73ffffffffffffffffffffffffffffffffffffffff16610e45610a69565b73ffffffffffffffffffffffffffffffffffffffff1614610e9b576040517f08c379a0000000000000000000000000000000000000000000000000000000008152600401610e9290611a97565b60405180910390fd5b600073ffffffffffffffffffffffffffffffffffffffff168173ffffffffffffffffffffffffffffffffffffffff1603610f0a576040517f08c379a0000000000000000000000000000000000000000000000000000000008152600401610f0190611ceb565b60405180910390fd5b8073ffffffffffffffffffffffffffffffffffffffff1660008054906101000a900473ffffffffffffffffffffffffffffffffffffffff1673ffffffffffffffffffffffffffffffffffffffff167f8be0079c531659141344cd1fd0a4f28419497f9722a3daafe3b4186f6b6457e060405160405180910390a3806000806101000a81548173ffffffffffffffffffffffffffffffffffffffff021916908373ffffffffffffffffffffffffffffffffffffffff16021790555050565b600033905090565b508054610fdb90611641565b6000825580601f10610fed575061100c565b601f01602090049060005260206000209081019061100b919061103e565b5b50565b6040518060a0016040528060608152602001606081526020016060815260200160608152602001606081525090565b5b8082111561105757600081600090555060010161103f565b5090565b6000604051905090565b600080fd5b600080fd5b600080fd5b600080fd5b6000601f19601f8301169050919050565b7f4e487b7100000000000000000000000000000000000000000000000000000000600052604160045260246000fd5b6110c282611079565b810181811067ffffffffffffffff821117156110e1576110e061108a565b5b80604052505050565b60006110f461105b565b905061110082826110b9565b919050565b600067ffffffffffffffff8211156111205761111f61108a565b5b61112982611079565b9050602081019050919050565b82818337600083830152505050565b600061115861115384611105565b6110ea565b90508281526020810184848401111561117457611173611074565b5b61117f848285611136565b509392505050565b600082601f83011261119c5761119b61106f565b5b81356111ac848260208601611145565b91505092915050565b6000602082840312156111cb576111ca611065565b5b600082013567ffffffffffffffff8111156111e9576111e861106a565b5b6111f584828501611187565b91505092915050565b600080fd5b600080fd5b600060a0828403121561121e5761121d6111fe565b5b61122860a06110ea565b9050600082013567ffffffffffffffff81111561124857611247611203565b5b61125484828501611187565b600083015250602082013567ffffffffffffffff81111561127857611277611203565b5b61128484828501611187565b602083015250604082013567ffffffffffffffff8111156112a8576112a7611203565b5b6112b484828501611187565b604083015250606082013567ffffffffffffffff8111156112d8576112d7611203565b5b6112e484828501611187565b606083015250608082013567ffffffffffffffff81111561130857611307611203565b5b61131484828501611187565b60808301525092915050565b6000806040838503121561133757611336611065565b5b600083013567ffffffffffffffff8111156113555761135461106a565b5b61136185828601611187565b925050602083013567ffffffffffffffff8111156113825761138161106a565b5b61138e85828601611208565b9150509250929050565b600081519050919050565b600082825260208201905092915050565b60005b838110156113d25780820151818401526020810190506113b7565b838111156113e1576000848401525b50505050565b60006113f282611398565b6113fc81856113a3565b935061140c8185602086016113b4565b61141581611079565b840191505092915050565b600060a083016000830151848203600086015261143d82826113e7565b9150506020830151848203602086015261145782826113e7565b9150506040830151848203604086015261147182826113e7565b9150506060830151848203606086015261148b82826113e7565b915050608083015184820360808601526114a582826113e7565b9150508091505092915050565b600060208201905081810360008301526114cc8184611420565b905092915050565b600073ffffffffffffffffffffffffffffffffffffffff82169050919050565b60006114ff826114d4565b9050919050565b61150f816114f4565b82525050565b600060208201905061152a6000830184611506565b92915050565b60008115159050919050565b61154581611530565b82525050565b6000602082019050611560600083018461153c565b92915050565b61156f816114f4565b811461157a57600080fd5b50565b60008135905061158c81611566565b92915050565b6000602082840312156115a8576115a7611065565b5b60006115b68482850161157d565b91505092915050565b600081905092915050565b60006115d582611398565b6115df81856115bf565b93506115ef8185602086016113b4565b80840191505092915050565b600061160782846115ca565b915081905092915050565b7f4e487b7100000000000000000000000000000000000000000000000000000000600052602260045260246000fd5b6000600282049050600182168061165957607f821691505b60208210810361166c5761166b611612565b5b50919050565b7f4e487b7100000000000000000000000000000000000000000000000000000000600052603260045260246000fd5b60008190508160005260206000209050919050565b600081546116c381611641565b6116cd81866115bf565b945060018216600081146116e857600181146116fd57611730565b60ff1983168652811515820286019350611730565b611706856116a1565b60005b8381101561172857815481890152600182019150602081019050611709565b838801955050505b50505092915050565b600061174582846116b6565b915081905092915050565b7f4e487b7100000000000000000000000000000000000000000000000000000000600052601160045260246000fd5b6000819050919050565b60006117948261177f565b91507fffffffffffffffffffffffffffffffffffffffffffffffffffffffffffffffff82036117c6576117c5611750565b5b600182019050919050565b60006020601f8301049050919050565b600082821b905092915050565b60006008830261181e7fffffffffffffffffffffffffffffffffffffffffffffffffffffffffffffffff826117e1565b61182886836117e1565b95508019841693508086168417925050509392505050565b6000819050919050565b600061186561186061185b8461177f565b611840565b61177f565b9050919050565b6000819050919050565b61187f8361184a565b61189361188b8261186c565b8484546117ee565b825550505050565b600090565b6118a861189b565b6118b3818484611876565b505050565b5b818110156118d7576118cc6000826118a0565b6001810190506118b9565b5050565b601f82111561191c576118ed816116a1565b6118f6846117d1565b81016020851015611905578190505b611919611911856117d1565b8301826118b8565b50505b505050565b600082821c905092915050565b600061193f60001984600802611921565b1980831691505092915050565b6000611958838361192e565b9150826002028217905092915050565b61197182611398565b67ffffffffffffffff81111561198a5761198961108a565b5b6119948254611641565b61199f8282856118db565b600060209050601f8311600181146119d257600084156119c0578287015190505b6119ca858261194c565b865550611a32565b601f1984166119e0866116a1565b60005b82811015611a08578489015182556001820191506020850194506020810190506119e3565b86831015611a255784890151611a21601f89168261192e565b8355505b6001600288020188555050505b505050505050565b600082825260208201905092915050565b7f4f776e61626c653a2063616c6c6572206973206e6f7420746865206f776e6572600082015250565b6000611a81602083611a3a565b9150611a8c82611a4b565b602082019050919050565b60006020820190508181036000830152611ab081611a74565b9050919050565b600081519050919050565b600082825260208201905092915050565b6000819050602082019050919050565b6000611aef83836113e7565b905092915050565b6000602082019050919050565b6000611b0f82611ab7565b611b198185611ac2565b935083602082028501611b2b85611ad3565b8060005b85811015611b675784840389528151611b488582611ae3565b9450611b5383611af7565b925060208a01995050600181019050611b2f565b50829750879550505050505092915050565b60006020820190508181036000830152611b938184611b04565b905092915050565b600081519050919050565b600082825260208201905092915050565b6000611bc282611b9b565b611bcc8185611ba6565b9350611bdc8185602086016113b4565b611be581611079565b840191505092915050565b6000819050919050565b600063ffffffff82169050919050565b6000611c25611c20611c1b84611bf0565b611840565b611bfa565b9050919050565b611c3581611c0a565b82525050565b6000606082019050611c506000830186611506565b8181036020830152611c628185611bb7565b9050611c716040830184611c2c565b949350505050565b7f4f776e61626c653a206e6577206f776e657220697320746865207a65726f206160008201527f6464726573730000000000000000000000000000000000000000000000000000602082015250565b6000611cd5602683611a3a565b9150611ce082611c79565b604082019050919050565b60006020820190508181036000830152611d0481611cc8565b905091905056fea26469706673582212203b9467e155c2e40a8be88d133a5f1a32ee7cfce9e59a103471434f7d722572e964736f6c634300080f0033",
    "immutableReferences": {},
    "source": "// SPDX-License-Identifier: MIT\npragma solidity ^0.8.15;\n\nimport './IDID_L2.sol';\nimport '../../node_modules/@openzeppelin/contracts/access/Ownable.sol';\nimport { ICrossDomainMessenger } from '../../node_modules/@eth-optimism/contracts/libraries/bridge/ICrossDomainMessenger.sol';\n\ncontract DID_L2 is Ownable, IDID_L2 {\n\n    // identifier => UserInfo\n    mapping(string => UserInfo) private user;\n\n    // L1 CA\n    address private DID_L1_CA;\n    string[] private userCodeList;\n\n    // identifier => true/false\n    mapping(string => bool) private isRegisteredUser;\n\n    ICrossDomainMessenger private L2CrossDomainMessenger;\n\n    constructor() {\n        L2CrossDomainMessenger = ICrossDomainMessenger(0x4200000000000000000000000000000000000007);\n    }\n\n    function registerUser(string memory _identifier, UserInfo memory _userData) public override {\n\n        require(!isRegisteredUser[_identifier]);\n        \n        UserInfo memory userInfo;\n\n        userInfo.userCode = _userData.userCode;\n        userInfo.name = _userData.name;\n        userInfo.birth = _userData.birth;\n        userInfo.gender = _userData.gender;\n        userInfo.email = _userData.email;\n\n        user[_identifier] = userInfo;\n        isRegisteredUser[_identifier] = true;\n        userCodeList.push(_userData.userCode);\n    }\n\n    function withdrawUser(string memory _identifier) public override {\n        require(isRegisteredUser[_identifier]);\n\n        string memory userCode = user[_identifier].userCode;\n        for (uint i=0; i<userCodeList.length; i++) {\n            if (keccak256(abi.encodePacked(userCodeList[i])) == keccak256(abi.encodePacked(userCode))) {\n                delete userCodeList[i];\n            }\n        }\n\n        delete user[_identifier];\n        isRegisteredUser[_identifier] = false;\n    }\n\n    function isRegistered(string memory _identifier) public view override returns (bool) {\n        return isRegisteredUser[_identifier];\n    }\n\n    function getUserInfo(string memory _identifier) public view override onlyOwner returns (UserInfo memory) {\n        require(isRegisteredUser[_identifier]);\n\n        return user[_identifier];\n    }\n\n    function setL1_CA(address _CA) public onlyOwner {\n        DID_L1_CA = _CA;\n    }\n\n    function sendToL1() public onlyOwner {\n\n        string[] memory users = userCodeList;\n        L2CrossDomainMessenger.sendMessage(DID_L1_CA, abi.encodeWithSignature(\"setUsers(string[])\", users), 1000000);\n    }\n}",
    "sourcePath": "/Users/bitkunst/Desktop/workspace/did/ethereum/contracts/optimism/DID_L2.sol",
    "compiler": {
        "name": "solc",
        "version": "0.8.15+commit.e14f2714.Emscripten.clang"
    },
    "schemaVersion": "3.4.8",
    "updatedAt": "2022-09-14T06:19:08.242Z",
    "networkType": "ethereum",
    "devdoc": {
        "kind": "dev",
        "methods": {
            "owner()": {
                "details": "Returns the address of the current owner."
            },
            "renounceOwnership()": {
                "details": "Leaves the contract without owner. It will not be possible to call `onlyOwner` functions anymore. Can only be called by the current owner. NOTE: Renouncing ownership will leave the contract without an owner, thereby removing any functionality that is only available to the owner."
            },
            "transferOwnership(address)": {
                "details": "Transfers ownership of the contract to a new account (`newOwner`). Can only be called by the current owner."
            }
        },
        "version": 1
    },
    "userdoc": {
        "kind": "user",
        "methods": {},
        "version": 1
    }
}